:100000000C9434000C9449000C9449000C94490061
:100010000C9449000C9449000C9449000C9449003C
:100020000C9449000C9449000C9449000C9449002C
:100030000C9449000C9449000C9449000C9449001C
:100040000C9449000C9449000C9449000C9449000C
:100050000C9449000C9449000C9449000C944900FC
:100060000C9449000C94490011241FBECFEFD8E036
:10007000DEBFCDBF12E0A0E0B1E0E8EFFAE102C0E0
:1000800005900D92A237B107D9F70E944B000C944E
:100090007A0D0C9400002F923F924F925F926F92D4
:1000A0007F928F929F92AF92BF92CF92DF92EF9208
:1000B000FF920F931F93CF93DF938FE084B980EF6C
:1000C0008AB980E895E240E054E264EF70E00E9473
:1000D00039031DE69924C8EED3E050E9652E51E0BE
:1000E000752E40E4542E30E2432E20E1822E98E01B
:1000F000392E82E0282E163309F49CC11733ACF454
:10010000123309F471C013334CF4103309F47DC277
:1001100011330CF5113209F09FC27DC2143309F47A
:10012000F7C015330CF03DC1A9C01C3409F45EC200
:100130001D343CF4173309F4C7C1183309F08CC2DD
:100140000CC21C3609F452C21D3609F46AC21D34B1
:1001500009F082C266C2992019F085B1882548C08D
:100160002C9ABE01882777FD8095982F0E949309CD
:100170005B016C0120E030E04AE755E40E945D0736
:100180007B018C0120E030E040E85FE30E946309DE
:1001900088231CF461E070E022C0C801B70120E0B0
:1001A0003FEF4FE757E40E9403091816A4F4C60175
:1001B000B50120E030E040E251E40E945D070E947A
:1001C000870505C0C3010197F1F7615070406115C3
:1001D0007105C1F707C0C801B7010E948705CB01AF
:1001E0000197F1F72C983CC2992021F085B1832525
:1001F00085B936C22B9ABE01882777FD8095982F46
:100200000E9493095B016C0120E030E04AE755E46D
:100210000E945D077B018C0120E030E040E85FE355
:100220000E94630988231CF461E070E022C0C801C9
:10023000B70120E03FEF4FE757E40E94030918168B
:10024000A4F4C601B50120E030E040E251E40E9490
:100250005D070E94870505C0C3010197F1F7615052
:10026000704061157105C1F707C0C801B7010E9450
:100270008705CB010197F1F72B98F2C1992021F066
:1002800085B194E08927B4CF2A9ABE01882777FDEB
:100290008095982F0E9493095B016C0120E030E06B
:1002A0004AE755E40E945D077B018C0120E030E0C5
:1002B00040E85FE30E94630988231CF461E070E07A
:1002C00022C0C801B70120E03FEF4FE757E40E948A
:1002D00003091816A4F4C601B50120E030E040E29D
:1002E00051E40E945D070E94870505C0C301019784
:1002F000F1F76150704061157105C1F707C0C80181
:10030000B7010E948705CB010197F1F72A98A8C190
:10031000992019F085B182256BCF299ABE018827D3
:1003200077FD8095982F0E9493095B016C0120E076
:1003300030E04AE755E40E945D077B018C0120E034
:1003400030E040E85FE30E94630988231CF461E029
:1003500070E022C0C801B70120E03FEF4FE757E44B
:100360000E9403091816A4F4C601B50120E030E08C
:1003700040E251E40E945D070E94870505C0C30169
:100380000197F1F76150704061157105C1F707C021
:10039000C801B7010E948705CB010197F1F72998A1
:1003A0005FC1992019F08BB1805848C05F9ABE0197
:1003B000882777FD8095982F0E9493095B016C0137
:1003C00020E030E04AE755E40E945D077B018C01A4
:1003D00020E030E040E85FE30E94630988231CF4DA
:1003E00061E070E022C0C801B70120E03FEF4FE7B5
:1003F00057E40E9403091816A4F4C601B50120E0D1
:1004000030E040E251E40E945D070E94870505C08C
:10041000C3010197F1F76150704061157105C1F793
:1004200007C0C801B7010E948705CB010197F1F70A
:100430005F9816C1992021F08BB185258BB910C129
:100440005E9ABE01882777FD8095982F0E949309B8
:100450005B016C0120E030E04AE755E40E945D0753
:100460007B018C0120E030E040E85FE30E946309FB
:1004700088231CF461E070E022C0C801B70120E0CD
:100480003FEF4FE757E40E9403091816A4F4C60192
:10049000B50120E030E040E251E40E945D070E9497
:1004A000870505C0C3010197F1F7615070406115E0
:1004B0007105C1F707C0C801B7010E948705CB01CC
:1004C0000197F1F75E98CCC0992019F08BB1842583
:1004D000B5CF5D9ABE01882777FD8095982F0E9441
:1004E00093095B016C0120E030E04AE755E40E948B
:1004F0005D077B018C0120E030E040E85FE30E9473
:10050000630988231CF461E070E022C0C801B701D0
:1005100020E03FEF4FE757E40E9403091816A4F4C8
:10052000C601B50120E030E040E251E40E945D07E1
:100530000E94870505C0C3010197F1F76150704023
:1005400061157105C1F707C0C801B7010E94870591
:10055000CB010197F1F75D9883C0992019F08BB119
:1005600088256CCF5C9ABE01882777FD8095982FEF
:100570000E9493095B016C0120E030E04AE755E4FA
:100580000E945D077B018C0120E030E040E85FE3E2
:100590000E94630988231CF461E070E022C0C80156
:1005A000B70120E03FEF4FE757E40E940309181618
:1005B000A4F4C601B50120E030E040E251E40E941D
:1005C0005D070E94870505C0C3010197F1F76150DF
:1005D000704061157105C1F707C0C801B7010E94DD
:1005E0008705CB010197F1F75C983AC0992031F06B
:1005F00080E091E00E94D503992432C089E091E027
:100600000E94D503992493942BC085B1807F85B92E
:100610008BB18F7013CF85B18F6085B98BB1806F2F
:100620000DCF81E191E00E94D5030E946D038133DB
:100630001CF4C8EED3E006C094E68902E001112460
:10064000C05CD241BE01882777FD8095982F0E941B
:10065000780388E291E002C08EE291E00E94D50327
:100660000E946D03182F0E94650380E20E946503BB
:1006700042CD0F931F9324E0769567955795479544
:100680002A95D1F78C0120E030E0CB01BA01A90115
:1006900098010E94590C2150304040405040BB27E7
:1006A000A52F942F832F8093C5002093C40088E149
:1006B0008093C10086E08093C200E0ECF0E080818E
:1006C0008D7F80831F910F910895982F8091C00096
:1006D00085FFFCCF9093C60008958091C00087FFEE
:1006E000FCCF8091C60008958091C0008078089565
:1006F0008F929F92AF92BF92DF92EF92FF920F93F1
:100700001F93CF93DF934B015C0130E8E32E36E972
:10071000F32E38E9032F112DDD24D394C0E0D0E06F
:10072000C801B7012AE030E040E050E00E943A0CF6
:100730009B01AC01C501B4010E947B0CA80197018B
:100740000E947B0CDD2031F0222319F4DD24D394A8
:1007500008C0DD248091C00085FFFCCF205D209380
:10076000C600C801B7012AE030E040E050E00E9436
:100770007B0CC901DA017C018D012196C830D105BD
:1007800079F6DF91CF911F910F91FF90EF90DF905D
:10079000BF90AF909F908F90089502C08091C60047
:1007A0008091C00087FDFACF0895AC01DC010D9067
:1007B0000020E9F71197A81BB90B20E030E00CC02E
:1007C000FA01E20FF31FE0818091C00085FFFCCFAA
:1007D000E093C6002F5F3F4F2A173B0788F3089529
:1007E00088E391E00E94D5030895CF93DF93EC0155
:1007F00004C08DE391E00E94D50321978FEFCF3F96
:10080000D807B9F78091C00085FFFCCF8DE08093B9
:10081000C600DF91CF910895CF93DF93EC0165E49B
:1008200071E00E94CD0C009719F488E491E01DC09E
:10083000CE016CE471E00E94CD0C009719F481E5C3
:1008400091E013C0CE0165E571E00E94CD0C0097E8
:1008500019F48AE591E009C0CE016EE571E00E94CD
:10086000CD0C009721F484E691E00E94D503DF913E
:10087000CF9108957F928F929F92AF92BF92CF9225
:10088000DF92EF92FF920F931F93CF93DF935C0160
:100890007B01042FD52EC0E0D0E0CC2468E0862E6A
:1008A00050E2752E4AE0942E5BC08091C00087FF15
:1008B000FCCF1091C600F701EC0FFD1F10832196AD
:1008C000802F9D2D68E671E00E94CD0C009719F4F1
:1008D0001D3019F543C01D3059F48091C00085FFCB
:1008E000FCCF9092C600F701EC0FFD1F908221967D
:1008F000E02FFD2DDF010D900020E9F71197AE1BD1
:10090000BF0BCE018A1B9B0B8E0D9F1D602F7D2D73
:10091000AD010E94D60C009709F11F37C1F48091F8
:10092000C00085FFFCCF8092C6008091C00085FF8B
:10093000FCCF7092C6008091C00085FFFCCF8092F2
:10094000C6002297D7FF0CC0C0E0D0E009C080915C
:10095000C00085FFFCCF1093C60002C0CC24C39416
:10096000CA15DB051CF4CC2009F49FCFA02FBD2DA8
:10097000FD0101900020E9F73197EA1BFB0BCE1B2C
:10098000DF0BCE0DDF1D1882DF91CF911F910F91EC
:10099000FF90EF90DF90CF90BF90AF909F908F909F
:1009A0007F9008952F923F924F925F927F928F9205
:1009B0009F92AF92BF92CF92DF92EF92FF920F93EE
:1009C0001F93CF93DF931B012C014A01772473946B
:1009D00070EAA72E76E8B72E71E0C72ED12CC0E0C2
:1009E000D0E0C201B1010E94F1097B018C01002716
:1009F000F7FC0095102FC601B5012AE030E040E079
:100A000050E00E943A0C9B01AC01C801B7010E9462
:100A10007B0CA60195010E947B0C772031F02223EC
:100A200019F47724739408C077248091C00085FF5F
:100A3000FCCF205D2093C600C601B5012AE030E05E
:100A400040E050E00E947B0CC901DA015C016D01BD
:100A50002196C630D10529F68091C00085FFFCCFD4
:100A60008EE28093C6000F2EFDECAF2EFCECBF2E65
:100A7000FCECCF2EFDE3DF2EF02D2FC0C601B5011B
:100A800020E030E040E251E40E945D079B01AC01B0
:100A9000C201B1010E94EB0C9B01AC01CA01B9017A
:100AA000A60195010E9457080E94F109262F772080
:100AB00019F0662341F077248091C00085FFFCCFB8
:100AC000205D2093C600C601B50120E030E040E281
:100AD00051E40E9457085B016C0108948108910859
:100AE0008FEF88168FEF980649F6DF91CF911F910F
:100AF0000F91FF90EF90DF90CF90BF90AF909F90BD
:100B00008F907F905F904F903F902F900895EF923D
:100B1000FF920F931F937B018C0120E030E040E0B7
:100B20005FE40E94330988238CF0C801B70120E0FC
:100B300030E040E05FE40E94FF060E94F1099B0163
:100B4000AC01205030404040504806C0C801B701B9
:100B50000E94F1099B01AC01B901CA011F910F91DB
:100B6000FF90EF900895A0E0B0E0E9EBF5E00C9481
:100B7000960CDC012B01FA019C91923008F439C1EA
:100B8000EB018881823008F433C1943069F48430F9
:100B900009F02FC111969C9111978981981709F43A
:100BA00028C1AAE6B1E025C1843009F421C1823010
:100BB000A9F4923009F01DC19A01AD0188E0EA0163
:100BC0000990AE01E90109929E018150C1F7E2014D
:100BD000898111969C918923818308C1923009F4FF
:100BE00007C112962D903C901397EB018A819B814F
:100BF0001496AD90BD90CD90DC901797EC80FD8061
:100C00000E811F819101281B390BB90137FF04C0E8
:100C100066277727621B730B603271050CF061C089
:100C2000121613066CF537014801062E04C096947F
:100C30008794779467940A94D2F721E030E040E0FB
:100C400050E004C0220F331F441F551F6A95D2F78E
:100C500021503040404050402E213F21402351231D
:100C6000211531054105510521F021E030E040E03A
:100C700050E079018A01E628F728082919293CC0A3
:100C8000232BD1F1260E371E35014601062E04C056
:100C900096948794779467940A94D2F721E030E091
:100CA00040E050E004C0220F331F441F551F6A95D7
:100CB000D2F721503040404050402A213B214C2166
:100CC0005D21211531054105510521F021E030E07C
:100CD00040E050E059016A01A628B728C828D92861
:100CE0000BC0821593052CF01C01AA24BB246501BE
:100CF00003C0EE24FF24870111969C91D201119626
:100D00008C91981709F445C0992339F0A8019701EF
:100D10002A193B094C095D0906C0A60195012E1947
:100D20003F09400B510B57FD08C0118233822282CC
:100D300024833583468357831DC081E081833382BA
:100D4000228288279927DC01821B930BA40BB50B09
:100D500084839583A683B7830DC0220F331F441F5E
:100D6000551F24833583468357838281938101975E
:100D7000938382832481358146815781DA01C901B9
:100D80000197A109B1098F5F9F4FAF4FBF4328F370
:100D90000BC0918333822282EA0CFB1C0C1D1D1DAB
:100DA000E482F5820683178383E080832481358182
:100DB0004681578157FF1AC0C901AA2797FDA09500
:100DC000BA2F81709070A070B07056954795379586
:100DD0002795822B932BA42BB52B84839583A683F5
:100DE000B78382819381019693838283DF0101C05F
:100DF000D201CD01CDB7DEB7E2E10C94B20CA0E296
:100E0000B0E0E5E0F7E00C94A20C69837A838B8371
:100E10009C832D833E834F835887E9E0EE2EF12C8F
:100E2000EC0EFD1ECE010196B7010E94690B8E01EA
:100E30000F5E1F4FCE010596B8010E94690B8A898B
:100E400091E089278A8BC701B801AE01475E5F4FE9
:100E50000E94B3050E94940AA096E6E00C94BE0C92
:100E6000A0E2B0E0E6E3F7E00C94A20C69837A8399
:100E70008B839C832D833E834F835887F9E0EF2E2D
:100E8000F12CEC0EFD1ECE010196B7010E94690BFC
:100E90008E010F5E1F4FCE010596B8010E94690BAF
:100EA000C701B801AE01475E5F4F0E94B3050E94C3
:100EB000940AA096E6E00C94BE0CA0E2B0E0E3E653
:100EC000F7E00C94960C69837A838B839C832D8343
:100ED0003E834F835887CE010196BE01675F7F4FE7
:100EE0000E94690BCE010596BE016F5E7F4F0E9486
:100EF000690B9985923088F089898230C8F09430E6
:100F000019F4823051F404C0843029F4923081F411
:100F10008AE691E0C6C0923049F420E09A858A8939
:100F2000981321E02A87CE010996BBC0823049F48C
:100F300020E09A858A89981321E02A8BCE01419678
:100F4000B0C02D843E844F8458886D887E888F88F9
:100F5000988CEE24FF248701AA24BB24650140E07D
:100F600050E060E070E0E0E0F0E0C101817090707E
:100F7000892BE9F0E60CF71C081D191D9A01AB013D
:100F80002A0D3B1D4C1D5D1D80E090E0A0E0B0E00F
:100F9000E614F7040805190520F481E090E0A0E0CC
:100FA000B0E0BA01A901480F591F6A1F7B1FAA0CA4
:100FB000BB1CCC1CDD1C97FE08C081E090E0A0E0CB
:100FC000B0E0A82AB92ACA2ADB2A3196E032F10514
:100FD00049F0660C771C881C991C569447943794EA
:100FE0002794C3CFFA85EA892B893C898B859C8518
:100FF000280F391F2E5F3F4F17C0CA0181709070B4
:10100000892B61F016950795F794E79480E090E0BE
:10101000A0E0B0E8E82AF92A0A2B1B2B7695679501
:10102000579547952F5F3F4F77FDE7CF0CC0440F93
:10103000551F661F771F17FD4160EE0CFF1C001F38
:10104000111F21503040403090E0590790E069076F
:1010500090E4790760F32B8F3C8FDB01CA018F7717
:101060009070A070B07080349105A105B10561F455
:1010700047FD0AC0E114F1040105110529F0405CA7
:101080005F4F6F4F7F4F40781A8EFE1711F081E04F
:101090008A8F4D8F5E8F6F8F78A383E0898FCE010B
:1010A00049960E94940AA096E2E10C94B20CA8E141
:1010B000B0E0EDE5F8E00C949E0C69837A838B83B5
:1010C0009C832D833E834F835887B9E0EB2EF12C10
:1010D000EC0EFD1ECE010196B7010E94690B8E0138
:1010E0000F5E1F4FCE010596B8010E94690B29853E
:1010F000223008F47EC03989323010F4B8017CC047
:101100008A859A8989278A87243011F0223031F420
:10111000231709F06EC06AE671E06EC0343039F40E
:101120001D861E861F86188A1C861B8604C03230C8
:1011300021F484E08987B7015FC02B853C858B89CA
:101140009C89281B390B3C872B87ED84FE840F85F7
:101150001889AD88BE88CF88D88CEA14FB040C05AA
:101160001D0540F4EE0CFF1C001F111F21503040E4
:101170003C872B8720E030E040E050E080E090E0CA
:10118000A0E0B0E460E070E0EA14FB040C051D058B
:1011900040F0282B392B4A2B5B2BEA18FB080C0953
:1011A0001D09B695A79597958795EE0CFF1C001F16
:1011B000111F6F5F7F4F6F31710531F7DA01C90180
:1011C0008F779070A070B07080349105A105B10543
:1011D00061F427FD0AC0E114F1040105110529F0AD
:1011E000205C3F4F4F4F5F4F20782D873E874F87C2
:1011F000588BBE01675F7F4FCB010E94940A6896AF
:10120000EAE00C94BA0CA8E1B0E0E9E0F9E00C9453
:10121000A20C69837A838B839C832D833E834F83C7
:10122000588789E0E82EF12CEC0EFD1ECE010196C8
:10123000B7010E94690B8E010F5E1F4FCE0105960C
:10124000B8010E94690B8985823040F0898982301B
:1012500028F0C701B8010E94E10B01C08FEF68962A
:10126000E6E00C94BE0CA8E1B0E0E9E3F9E00C94F0
:10127000A20C69837A838B839C832D833E834F8367
:10128000588789E0E82EF12CEC0EFD1ECE01019668
:10129000B7010E94690B8E010F5E1F4FCE010596AC
:1012A000B8010E94690B8985823040F089898230BB
:1012B00028F0C701B8010E94E10B01C08FEF6896CA
:1012C000E6E00C94BE0CA8E1B0E0E9E6F9E00C948D
:1012D000A20C69837A838B839C832D833E834F8307
:1012E000588789E0E82EF12CEC0EFD1ECE01019608
:1012F000B7010E94690B8E010F5E1F4FCE0105964C
:10130000B8010E94690B8985823040F0898982305A
:1013100028F0C701B8010E94E10B01C081E0689686
:10132000E6E00C94BE0CA8E0B0E0E9E9F9E00C942A
:101330009F0C9B01AC0183E08983DA01C9018827F6
:10134000B7FD83959927AA27BB27B82E211531050C
:101350004105510519F482E089833AC08823A9F038
:10136000203080E0380780E0480780E8580729F4FB
:1013700060E070E080E09FEC30C0EE24FF24870145
:10138000E21AF30A040B150B02C079018A018EE1FF
:10139000C82ED12CDC82CB82ED82FE820F8318878F
:1013A000C801B7010E94450A01971816190684F46E
:1013B000082E04C0EE0CFF1C001F111F0A94D2F768
:1013C000ED82FE820F831887C81AD90ADC82CB828D
:1013D000BA82CE0101960E94940A2896E9E00C9404
:1013E000BB0CACE0B0E0E7EFF9E00C94A60C69832D
:1013F0007A838B839C83CE010196BE016B5F7F4F06
:101400000E94690B8D81823061F1823050F184300D
:1014100021F48E81882351F12EC02F81388537FD2C
:1014200020C06E812F3131051CF06623F9F023C0F6
:101430008EE190E0821B930B29853A854B855C8574
:1014400004C056954795379527958A95D2F7662318
:10145000B1F050954095309521953F4F4F4F5F4FDC
:101460000EC020E030E040E050E009C02FEF3FEF39
:101470004FEF5FE704C020E030E040E050E8B90102
:10148000CA012C96E2E00C94C20CEF92FF920F93EB
:101490001F937B018C0180E0E81680E0F80681E074
:1014A000080780E0180788F48FEFE816F1040105BB
:1014B000110531F028F088E090E0A0E0B0E017C01E
:1014C00080E090E0A0E0B0E012C080E0E81680E0AC
:1014D000F80680E0080781E0180728F088E190E02E
:1014E000A0E0B0E004C080E190E0A0E0B0E020E245
:1014F00030E040E050E0281B390B4A0B5B0B04C086
:1015000016950795F794E7948A95D2F7F701EE5868
:10151000FE4F8081281B310941095109C9011F91E2
:101520000F91FF90EF900895DF92EF92FF920F934B
:101530001F93FC01E480F58006811781D1808081B2
:10154000823048F480E090E0A0E1B0E0E82AF92A97
:101550000A2B1B2BA5C0843009F49FC0823021F4D4
:10156000EE24FF24870105C0E114F10401051105F3
:1015700019F4E0E0F0E096C0628173819FEF623879
:1015800079070CF05BC022E83FEF261B370B2A31AE
:1015900031052CF020E030E040E050E02AC0B801F6
:1015A000A701022E04C076956795579547950A9432
:1015B000D2F781E090E0A0E0B0E004C0880F991F6E
:1015C000AA1FBB1F2A95D2F70197A109B1098E2145
:1015D0009F21A023B1230097A105B10521F081E04F
:1015E00090E0A0E0B0E09A01AB01282B392B4A2B08
:1015F0005B2BDA01C9018F779070A070B0708034D6
:101600009105A105B10539F427FF09C0205C3F4FC2
:101610004F4F5F4F04C0215C3F4F4F4F5F4FE0E0A3
:10162000F0E02030A0E03A07A0E04A07A0E45A0723
:1016300010F0E1E0F0E079018A0127C0603871051F
:1016400064F5FB01E158FF4FD801C7018F77907017
:10165000A070B07080349105A105B10539F4E7FEA2
:101660000DC080E490E0A0E0B0E004C08FE390E023
:10167000A0E0B0E0E80EF91E0A1F1B1F17FF05C00F
:1016800016950795F794E794319687E01695079598
:10169000F794E7948A95D1F705C0EE24FF248701DB
:1016A000EFEFF0E06E2F679566276795902F9F7795
:1016B000D794DD24D7948E2F8695492F462B582F0B
:1016C0005D29B701CA011F910F91FF90EF90DF9044
:1016D0000895FC01DB01408151812281622F6F77E7
:1016E00070E0221F2227221F9381892F880F822BCF
:1016F000282F30E0991F9927991F11969C931197D5
:1017000021153105A9F5411551056105710511F442
:1017100082E037C082E89FEF13969C938E931297D6
:101720009A01AB0167E0220F331F441F551F6A95D2
:10173000D1F783E08C930DC0220F331F441F551F38
:1017400012968D919C911397019713969C938E936B
:101750001297203080E0380780E0480780E458077F
:1017600058F314962D933D934D935C9317970895DA
:101770002F3F310579F4411551056105710519F4C3
:1017800084E08C93089564FF03C081E08C9312C0C1
:101790001C9210C02F57304013963C932E931297F3
:1017A00083E08C9387E0440F551F661F771F8A954F
:1017B000D1F7706414964D935D936D937C93179756
:1017C00008951F93DC01FB019C91923008F447C0FF
:1017D0008081823008F443C0943051F411961C91FA
:1017E000843099F58181682F70E0611B71093FC0D9
:1017F000843021F0923031F48230B9F18181882334
:1018000089F12DC011961C9111978230F1F08181E0
:101810001817D9F412962D913C91139782819381D8
:101820008217930794F028173907BCF014968D910E
:101830009D910D90BC91A02D2481358146815781C9
:10184000281739074A075B0718F4112341F00AC02B
:1018500082179307A407B50740F4112319F061E03C
:1018600070E005C06FEF7FEF02C060E070E0CB0179
:101870001F910895629FD001739FF001829FE00D38
:10188000F11D649FE00DF11D929FF00D839FF00DFF
:10189000749FF00D659FF00D9927729FB00DE11DAB
:1018A000F91F639FB00DE11DF91FBD01CF01112488
:1018B0000895A1E21A2EAA1BBB1BFD010DC0AA1F91
:1018C000BB1FEE1FFF1FA217B307E407F50720F0A9
:1018D000A21BB30BE40BF50B661F771F881F991F24
:1018E0001A9469F760957095809590959B01AC016D
:1018F000BD01CF01089597FB092E05260ED057FD97
:1019000004D0D7DF0AD0001C38F4509540953095AC
:1019100021953F4F4F4F5F4F0895F6F79095809573
:10192000709561957F4F8F4F9F4F08952F923F92F3
:101930004F925F926F927F928F929F92AF92BF92DF
:10194000CF92DF92EF92FF920F931F93CF93DF938B
:10195000CDB7DEB7CA1BDB0B0FB6F894DEBF0FBEE8
:10196000CDBF09942A88398848885F846E847D8435
:101970008C849B84AA84B984C884DF80EE80FD8037
:101980000C811B81AA81B981CE0FD11D0FB6F894AD
:10199000DEBF0FBECDBFED010895FB01DC018D91CF
:1019A000019080190110D9F3990B0895FB01DC0116
:1019B0004150504030F08D910190801919F4002071
:1019C000B9F7881B990B08955ED018F011F062D01A
:1019D00038F456C089C0E92F64D0B0F35523C9F359
:1019E000E7FB6217730784079507A8F199F3E92FBE
:1019F000FF2788232AF03197660F771F881FDAF7B1
:101A0000952F5527442332F091505040220F331F19
:101A1000441FD2F7BB27E91BF50B621B730B840B2A
:101A2000B109C1F222F4620F731F841FB11D3197F7
:101A30002AF0660F771F881FBB1FEFCF91505040D1
:101A40005AF041F0882332F0660F771F881F9150BB
:101A50005040C1F7939506C08695779567959F5F2F
:101A6000D9F7F8CF9F3F31F0915020F487957795C3
:101A70006795B795880F911D9695879597F9089565
:101A80009FEF80EC089500240A9416161706180696
:101A90000906089500240A94121613061406050672
:101AA000089557FD9058440F551F59F05F3F71F04E
:101AB0004795880F97FB991F61F09F3F79F08795B5
:101AC0000895121613061406551FF2CF4695F1DF3E
:101AD00008C0161617061806991FF1CF86957105CE
:101AE000610508940895E894BB2766277727CB0102
:081AF00097F90895F894FFCF67
:101AF8004D6F6D656E740D0A004C617463680D0A54
:101B0800001B5B324B0D4D6F6D656E7461727920F1
:101B180044656C61793A2000206D730D0A00496EA6
:101B280076616C69640D0A001B5B324A001B5B41DD
:101B38001B5B324B007570001B5B4100646F776E56
:101B4800001B5B42006C656674001B5B4400726995
:101B5800676874001B5B43000D0000000000000074
:101B68000000000102020303030304040404040444
:101B7800040405050505050505050505050505050F
:101B880005050606060606060606060606060606EF
:101B980006060606060606060606060606060606DD
:101BA80006060707070707070707070707070707BF
:101BB80007070707070707070707070707070707AD
:101BC800070707070707070707070707070707079D
:101BD800070707070707070707070707070707078D
:101BE800070708080808080808080808080808086F
:101BF800080808080808080808080808080808085D
:101C0800080808080808080808080808080808084C
:101C1800080808080808080808080808080808083C
:101C2800080808080808080808080808080808082C
:101C3800080808080808080808080808080808081C
:101C4800080808080808080808080808080808080C
:101C580008080808080808080808080808080808FC
:021C680008086A
:00000001FF
